:03000000020F14D8
:0C0F1400787FE4F6D8FD758121020F5BA8
:10000E00900037E0F8A3E0F9A3E0FAA3E0FB0201C9
:01001E00E4FD
:10124B0043C92043BA8090FEA8743FF053BA7F7510
:06125B00DE2F75BC8522A8
:1011FC00E4FDFC43BC400000E5BC30E5FB53BCDF28
:0C120C00AFBDEF4CFCAFBEED4FAE04FFD9
:0112180022B3
:10106E001211FCC3E49FFD74049EFC120256E4FBB5
:10107E00FA79807844120147E4FBFA7996784312A4
:10108E00003E9000371205FFE4FFFEFDFC12000E3D
:10109E00500A90003712060B00000000E4FFFE7DA0
:1010AE00967C4312000E600C400A90003712060B1D
:1010BE0043960000900037E0FCA3E0FDA3E0FEA302
:0210CE00E0FF41
:0110D00022FD
:1011DE000D0A004F4B00636F6D6D616E642065727A
:0E11EE00726F72210025302E326600636D0094
:100FA00043003241542B4500004D4F44453D450020
:100FB00006444953543D4100053044002E000000D2
:100FC000004A000B41542B4D4F44453D3000590021
:100FD00015446973743D000000000000000000002B
:0A0FE0000000000000000000000007
:1011BE00900037E0FBA3E0FAA3E022FCAD037B0135
:1011CE007F057E00120808EF22F990000802059CA8
:100CAF00900037EBF0A3EAF0A3E9F0200903020D5F
:100CBF00B8900088E0FF640D6008EF640A600302DB
:100CCF000DB81211BEF8AC02AD037B017A00793278
:100CDF007F031211D06003020DB81211BE2403F965
:100CEF00E43AA8017A0079001211C970421211BEBC
:100CFF001211D7B43F11900005E0900013F07B0163
:100D0F007A00790B020DA51211BE1211D7FF6430B4
:100D1F006004EFB431101211D8900005F07BFF7A08
:100D2F001179E1020DA57BFF7A1179E4020DA5126D
:100D3F0011BE2403F9E43AA8017A0079061211C909
:100D4F0070671211BE1211D7643F7044900005E016
:100D5F006430704E90003D74FFF0A37411F0A374D3
:100D6F00F3F090002EE0FCA3E0FDA3E0FEA3E0FF74
:100D7F009000401205FF7B017A00791A1208917BCF
:100D8F00017A0079151211157BFF7A1179F9800616
:100D9F007BFF7A1179E41211157BFF7A1179DE123C
:0A0DAF001115C209E490008AF02239
:0C12770025302E326600636D000D0A0069
:10114800900035E0FEA3E0FFC390008CE09FFF9085
:10115800008BE09EFEC3EF2290008BE0FFA3E0909F
:081168000035CFF0A3EFF022E7
:100E7600E4900035F0A3F012124B12126112002614
:100E86001210D1D2ACD2AF7B017A00797F120CAFAF
:100E9600900005E064317059121148940AEE9400EE
:100EA60040E5120F0A90003D74FFF0A37412F0A300
:100EB6007477F090002EE0FCA3E0FDA3E0FEA3E033
:100EC600FF9000401205FF7B017A00791A12089103
:100ED6007B017A0079151211157BFF7A12797D1242
:100EE60011157BFF7A127980121115121160020E0C
:100EF6008D1211489406EE9400408C120F0A1211BE
:040F060060020E8DEA
:0A0F0A0012117090002E1205FF2254
:03000B00021219C5
:10121900C0E0C083C08290008CE004F070069000AA
:0B1229008BE004F0D082D083D0E032D4
:10002600E490008BF0A3F0F58A758CDCD28CD2A913
:0100360022A7
:100FEA00C1094B007F000000000000000000000063
:03002300021009BF
:10100900C0E0C083C082C0D075D000C004C005C094
:1010190007309904C299C20A30983BC29890008A55
:10102900E0FFFD3395E0FC747F2DF58274003CF5FB
:1010390083E599F0C3EF6480948A500BE599640DB8
:101049006005E599B40A0990008AE4F0D20980069E
:1010590090008AE004F0D007D005D004D0D0D08227
:05106900D083D0E0324D
:10126100439850758BE8758DFFD28E438E40E49084
:06127100008AF0C20A220F
:08000300200AFDD20A8F9922A8
:1011150090003AEBF0A3EAF0A3E9F090003AE0FB87
:10112500A3E0FAA3E0F9120583601790003AA3E45F
:1011350075F0011205DBA9F0FA120583FF12000311
:0311450080D9222C
:0E0FFA004400730000000044006E0000000080
:10123400E0FCA3E0FDA3E0FEA3E022E0F8A3E0F9D4
:07124400A3E0FAA3E0FB2286
:03003B00020DB9FA
:100DB900C0E0C0F0C083C082C0D075D000C000C000
:100DC90001C002C003C004C005C006C00730DF0867
:100DD900C2DF900072E004F030D877C2D890007B6F
:100DE900121234FF9000771205FF90007EE5EAF0B9
:100DF90090007DE5FAF0900072E090007CF09000A0
:100E09007BE4F090007712123FA3121234C39BFFC8
:100E1900EE9AFEED99FDEC98FC90006A1205FF90A0
:100E2900006A121234FFE41202517BA37A2379B9C2
:100E3900783D12003E90006E1205FFE4FBFA7968D6
:100E4900784290006E121234FF120147900073121B
:100E590005FFD007D006D005D004D003D002D001B9
:0D0E6900D000D0D0D082D083D0F0D0E032C5
:1010D100E4F5B275B104F5CAF5C9900072F090005B
:1010E1007712060B0000000090007B12060B000037
:1010F100000090006A12060B00000000E4F5D875AC
:10110100D909F5E9F5F975DA31F5EAF5FAD2DEC270
:04111100CCC2B32277
:10117000D2DED2B3121283C2B312106E9000731279
:10118000123F1201E460064004C2CC8002D2CC902F
:071190000073121234FF226C
:041283007F27DFFEE4
:011287002244
:10003E00EC4D6011E8497017ED33EC3304600DE4BC
:10004E00FCFFFEFD22E933E8330470F80202C4120D
:10005E00028F58046009E4CC24815006285009020E
:10006E0002CE2840030202CBC0E0EB4A7044B980B6
:10007E0006D0E0FB0202BAEF4E701CBD8008EBFF0B
:10008E00EAFEE9FD80EBE98DF0A4FEE5F002012722
:10009E00E9CDF9EAFEEBFFEF89F0A4FCE5F0CE899D
:1000AE00F0A42EFFE435F0CD89F0A42DFEE435F05A
:1000BE008067EF4E7005BD80D780C3EF8BF0A4AC88
:1000CE00F0EE8BF0A42CFCE435F0F8EF8AF0A42CC3
:1000DE00E5F038FCE433CB8DF0A42CFCE5F03BF8D6
:1000EE00EE8AF0A42CFCE5F038F8E433CF89F0A4C6
:1000FE002CFCE5F038CF3400CE89F0A42FFFE5F0CC
:10010E003EFEE433C98DF0A42EFEE5F039CD8AF023
:10011E00A42FFFE5F03EFEE43DFD33D0E0FB50079B
:10012E000BBB000F0202CEEC2CFCEF33FFEE33FEC6
:06013E00ED33FD0202A6F4
:100144000202CEEC5D046005E8590470030202C4A7
:1001540012028F580460F6EC4860F2EC7004FDFE65
:10016400FF22C860DB2481C85009C398600250068E
:100174000202CB9850CAF582E9294B4A7005AB823A
:100184000202BA75F0007C1A7880C3EF9BEE9AEDF8
:1001940099400DC3EF9BFFEE9AFEED99FDE842F006
:1001A400DC23ACF0D0E0FFD0E0FED0E0FDAB822059
:1001B400E7101BEB60BAEC2CFCEF33FFEE33FEEDE3
:1001C40033FD0202A6E803F830E705C0F075F0003D
:1001D400EF2FFFEE33FEED33FD40B830E7C280AAC7
:1001E40074F8CC6480CCC86480C8F582046043C3CE
:1001F400EB9FF5F0EA9E42F0E99D42F0E89C45F061
:1002040060305018E5825FFFE582F42B5582FB5085
:10021400210ABA001D09B90019088016E5825BFBA2
:10022400E582F42F5582FF50090EBE00050DBD0076
:10023400010CC3EB9FF5F0EA9E42F0E99D42F0E821
:0D0244009C45F06007CC4820E701B3EC2298
:1002510075F020800E75F010800575F0087D007E28
:10026100007F003392D530D5031205F1EC334010F5
:10027100EF33FFEE33FEED33FDEC33FCD5F0ED2231
:0E028100E5F0247EA2D513CC92E7CDCEFF226D
:10082C00E508243DF582E43400F583E005082290C8
:10083C00003A30070390003DE475F00112063C02CB
:10084C0005832000E97F2ED2008018EF540F2490EE
:10085C00D43440D4FF30040BEF24BFB41A0050033F
:10086C002461FFE50960021509050CE50C70020511
:10087C000B30070E90003AE475F00112063CEF02C3
:10088C0005C90211977403D2078003E4C207F50867
:10089C0090003A120653E4F509F50BF50CE50960E6
:1008AC00077F2012086F80F5750AFFC201C200C2D3
:1008BC0002C203C205C206C20812083BFF700D300B
:1008CC0007057F00120880AF0CAE0B22B4255FC267
:1008DC00D5C20412083BFF24D0B40A00501A75F09C
:1008EC000A780930D50508B6FF0106C6A426F620FD
:1008FC00D5047002D20380D924CFB41A00EF50046F
:10090C00C2E5D204020B72D20180C6D20080C0D2E2
:10091C000280BCD2D580BAD20580B47F2012086F79
:10092C002002077401B5090040F112082CFF1208CF
:10093C006F0208A9D208D206809512082CFB120867
:10094C002CFA12082CF94A4B700679707A0C7BFF42
:10095C0020022EE509602A7E008E82758300120526
:10096C009C60060EEE650A70F0C2D5EBC0E0EAC0E2
:10097C00E0E9C0E0EE120BD3D0E0F9D0E0FAD0E021
:10098C00FB120583FF60AAEBC0E0EAC0E0E9C0E01F
:10099C0012086FD0E02401F9D0E03400FAD0E0FB6B
:1009AC00E50A0460DCD50AD98087D20280A2120B3A
:1009BC00B560F7E50A7001041202D9A90A600DE5C9
:1009CC000A600914F50A120C5DEF60F3EA30E702D5
:1009DC00F404C3995079EAF4250A0430E701E404DD
:1009EC00F50A800D120BB560C1EA050A250A120240
:1009FC00D9EA900069F030E701E4250A04D50A042D
:100A0C0020050114120BD3E4C0E0120C5D900069B8
:100A1C00E0601320E70714F0120857802204F0D08E
:100A2C00E014C0E07F00120857E50A600712084E78
:100A3C00150A800B30050312084ED0E00208A9D02D
:100A4C00E00480C4120BB5609EE50A041202D99032
:100A5C000069EAF0E50A2005026001042404120B87
:010A6C00D3B6
:100A6D0074FF04C0E0120C5D120857E50A20050260
:100A7D00600312084ED0E0B50AE87F451208619078
:100A8D000069E07F2B30E7047F2DF404C0E01208ED
:100A9D006FD0E075F00A84C0F0120858D0E012084B
:100AAD00580208A9791080027908C206C208800888
:100ABD00D2D5790A8004790AC2D5E50A047002F507
:100ACD000AE4FAFDFEFF12082CFC7B08200113122C
:100ADD00082CFD7B1030000A12082CFE12082CFF8A
:100AED007B20EC3382D592D55013C3E43000069FA2
:100AFD00FFE49EFEE42001039DFDE49CFCE4CBF8A5
:100B0D00C201EC700CCFCECDCCE824F8F870F38098
:100B1D0017C3EF33FFEE33FEED33FDEC33FCEB3358
:100B2D00FB994002FB0FD8E9EB300105F8D0E0C48A
:100B3D0048B201C0E00AEC4D4E4F78207B0070C2E8
:100B4D00EAB50A0040BCC0E0120BD5D0F0D0E020D1
:100B5D000104C4C0E0C4B201C0F0120858D0F0D5F1
:100B6D00F0EB0208A912065C0946530AB1580917A1
:100B7D004C0913420AB54F0ABD440ABD49092C431D
:100B8D000AC35509F0460A504509BA470C90500959
:100B9D001B2D091F2E09422B0923230940200C79F7
:100BAD002A08DB480000093AE50AB4FF03750A0676
:100BBD0012082CFC12082CFD12082CFE12082CFF1A
:100BCD00900062020316790AA2D52003143005099C
:100BDD00B910020404B9080104A2D520060250017F
:100BED00042002689202B509005034C0E07F203025
:100BFD0003197F30A20272067205500F120C2CC21F
:100C0D0002C206C205C2087F30800F300503E9C05D
:100C1D00E012086F300503D0E0F9D0E0B509CC3013
:100C2D0005177F30B9100C12086F7F583004077FFD
:100C3D00788003B9080312086F3002057F2D020872
:100C4D006F7F202008F87F2B2006F322920280CFA1
:100C5D007F00B40700500B2462F582E43400F58365
:100C6D00E0FF22286E756C6C2900D20112082C3021
:100C7D0001F8C201780930D50108F60208DB2D50C4
:100C8D0043495812082C2403B405004001E4900C8C
:100C9D008B93120860743A120860D203750904022E
:020CAD000AB18A
:10028F00E9D2E7C933E833F892D5EDD2E7CD33ECB5
:07029F0033FC5002B2D5222E
:1002A600EC30E7100FBF000C0EBE00080DBD0004B9
:1002B6000BEB6014A2D5EB13FCED92E7FD2274FF65
:1002C600FCFDFEFF22E480F8A2D574FF13FC7D80BE
:0302D600E480EFD2
:1002D900F920E73624F950037907E4F42402FBE511
:1002E90082158270021583DBF6E024FB501BE9605E
:1002F90014E4F0E582158270021583E004F0B40A73
:0D03090008E4F0D9EE7401F00A22C2D522FA
:10031600ED33EC3392D5FA602AB4FF33EDC2E77BB6
:10032600FF60067A03793BE4227A03794420D504F8
:100336007A03793F224E614E002B494E46002D49E5
:100346004E4600E47A08F0A3DAFC7B00740722C06C
:1003560083C082ECC0E0EDC0E0EEC0E0EFC0E0EAB2
:1003660075F010A4CAABF075F04DA42BFBE435F084
:10037600FCEA2410FAEB34C5FBEC34D9FCEDC2E7F9
:10038600FF75F056A4F42411C5F0F434C58FF0A41B
:100396002AE5F03BE43CF020E714120543D0E0FFE9
:1003A600D0E0FED0E0FDD0E0FC1201478014F4045A
:1003B600120543D0E0FFD0E0FED0E0FDD0E0FC1215
:1003C600003ED082D083E0FAEDD2E7CD33EC332481
:1003D60082FBE4C3CF33CFCE33CECD33CD33DBF385
:1003E6007B0775F00A846004F0A31B0AE5F0F0A30E
:1003F6008FF0740AA4FFACF08EF0740AA42CFEAC45
:10040600F050010C8DF0740AA42CFDE435F0F0A335
:05041600DBDE7407228B
:10041B000202C4E86480F8E933E83360110460F049
:10042B00ED33EC337009E8FCE9FDEAFEEBFF220447
:10043B0060DED3EB9FEA9EE99DE8C2E78CF0C2F742
:10044B0095F0400CE8CCF8E9CDF9EACEFAEBCFFB0E
:10045B0012028F85D0F05804700320D5B3E80470D6
:10046B00075002B2D50202CE92D5EC0460F7E4CC71
:10047B00C0E0C398F8603B94186008400DD0E0FBD7
:10048B000202A6E4FBFAC9FC8028E830E406E4C9C2
:10049B00FBE4CAFCE830E305E4C9CACBFCE854072B
:1004AB006010F8C3E913F9EA13FAEB13FBEC13FC36
:1004BB00D8F130F52FC3E49CFCEF9BFFEE9AFEEDD9
:1004CB0099FDD0E0FBEF4E4D4C701222DB03020284
:1004DB00CBEC2CFCEF33FFEE33FEED33FDED30E7D1
:1004EB00EB0202A6EF2BFFEE3AFEED39FDD0E0FB5F
:1004FB0050130BBB00030202CEED13FDEE13FEEF08
:08050B0013FFEC13FC0202A631
:100513003F8000004120000042C80000447A0000F0
:10052300461C400047C35000497424004B18968072
:100533004CBEBC205A0E1BCA6753C21C749DC5AE69
:10054300FB60065407601C2323120571EB543860CB
:100553000912055D12056C12003EECF8EDF9EEFA96
:10056300EFCB22EB12056C80F1543803241C900569
:1005730013FE93FC0EEE93FD0EEE930ECE93FF222D
:100F2000020E76E493A3F8E493A34003F68001F263
:100F300008DFF48029E493A3F85407240CC8C333D2
:100F4000C4540F4420C8834004F456800146F6DFA1
:100F5000E4800B0102040810204080900FA0E47E82
:100F6000019360BCA3FF543F30E509541FFEE49396
:100F7000A360010ECF54C025E060A840B8E493A35D
:100F8000FAE493A3F8E493A3C8C582C8CAC583CA88
:100F9000F0A3C8C582C8CAC583CADFE9DEE780BE40
:0110080000E7
:10058300BB010689828A83E0225002E722BBFE0276
:09059300E32289828A83E49322A9
:10059C00BB010CE58229F582E5833AF583E0225014
:1005AC0006E92582F8E622BBFE06E92582F8E2225E
:0D05BC00E58229F582E5833AF583E4932278
:1005C900BB010689828A83F0225002F722BBFE0111
:0205D900F3220B
:1005DB00A3F8E0C5F025F0F0E582158270021583D3
:0605EB00E0C838F0E82230
:0E05F100C3E49FFFE49EFEE49DFDE49CFC221B
:0C05FF00ECF0A3EDF0A3EEF0A3EFF0226F
:10060B00A8828583F0D083D0821206221206221292
:10061B000622120622E473E493A3C583C5F0C583B7
:10062B00C8C582C8F0A3C583C5F0C583C8C582C839
:01063B00229C
:10063C00F8E0FBA3A3E0F925F0F0E5821582700247
:07064C001583E0FA38F022EB
:09065300EBF0A3EAF0A3E9F022A8
:10065C00D083D082F8E4937012740193700DA3A32D
:10066C0093F8740193F5828883E473740293686041
:06067C00EFA3A3A380DF41
:10119700EFB40A07740D1211A2740A309811A899B6
:1011A700B8130CC2983098FDA899C298B811F630B8
:0711B70099FDC299F5992290
:10068200E3F5F009E208B5F06BDFF58067E3F5F01A
:1006920009E608B5F05EDFF5805A87F009E608B58D
:1006A200F052DFF6804E87F009E208B5F046DFF639
:1006B200804288828C8387F009E0A3B5F036DFF6AA
:1006C200803288828C8387F009E493A3B5F025DF1A
:1006D200F5802188828C83E3F5F009E0A3B5F0145C
:1006E200DFF5801088828C83E3F5F009E493A3B5EB
:1006F200F002DFF40207B1808780E9809080D48025
:100702003E8015806E807E809D80B7808D80A38024
:10071200518074803C0207BD89828A83ECFAE4939B
:10072200F5F0A3C8C582C8CCC583CCE493A3C8C5E1
:1007320082C8CCC583CCB5F076DFE3DEE180708978
:10074200828A83E493F5F0A3E208B5F062DFF480D5
:100752005E89828A83E0F5F0A3E608B5F051DFF501
:10076200804D89828A83E0F5F0A3E208B5F040DF8C
:10077200F5803C89828A83E493F5F0A3E608B5F01C
:100782002EDFF4802A8002805789828A83ECFAE481
:1007920093F5F0A3C8C582C8CCC583CCE0A3C8C575
:1007A20082C8CCC583CCB5F006DFE4DEE280007FF0
:1007B200FFB5F0020F2240027F012289828A83EC78
:1007C200FAE0F5F0A3C8C582C8CCC583CCE0A3C8C3
:1007D200C582C8CCC583CCB5F0D5DFE5DEE380CFDA
:1007E20089828A83ECFAE0F5F0A3C8C582C8CCC539
:1007F20083CCE493A3C8C582C8CCC583CCB5F0AF83
:10080200DFE4DEE280A988F0EF60010E4E60ABED1E
:100812002402B404005098F582EB2402B404005080
:0A0822008E23234582239006F9730C
:00000001FF
